{
  "contractName": "LeaseProperty",
  "abi": [
    {
      "constant": true,
      "inputs": [
        {
          "name": "",
          "type": "uint256"
        }
      ],
      "name": "lessees",
      "outputs": [
        {
          "name": "",
          "type": "address"
        }
      ],
      "payable": false,
      "stateMutability": "view",
      "type": "function"
    },
    {
      "constant": false,
      "inputs": [
        {
          "name": "propertyId",
          "type": "uint256"
        }
      ],
      "name": "lease",
      "outputs": [
        {
          "name": "",
          "type": "uint256"
        }
      ],
      "payable": false,
      "stateMutability": "nonpayable",
      "type": "function"
    },
    {
      "constant": true,
      "inputs": [],
      "name": "getLessees",
      "outputs": [
        {
          "name": "",
          "type": "address[16]"
        }
      ],
      "payable": false,
      "stateMutability": "view",
      "type": "function"
    },
    {
      "constant": false,
      "inputs": [
        {
          "name": "propertyId",
          "type": "uint256"
        }
      ],
      "name": "resetAsset",
      "outputs": [
        {
          "name": "",
          "type": "uint256"
        }
      ],
      "payable": false,
      "stateMutability": "nonpayable",
      "type": "function"
    }
  ],
  "bytecode": "0x608060405234801561001057600080fd5b50610399806100206000396000f300608060405260043610610062576000357c0100000000000000000000000000000000000000000000000000000000900463ffffffff168063014285f3146100675780632e352497146100ba5780633defea20146100fb578063c861fec314610168575b600080fd5b34801561007357600080fd5b5061007c6101a9565b6040518082601060200280838360005b838110156100a757808201518184015260208101905061008c565b5050505090500191505060405180910390f35b3480156100c657600080fd5b506100e56004803603810190808035906020019092919050505061022a565b6040518082815260200191505060405180910390f35b34801561010757600080fd5b506101266004803603810190808035906020019092919050505061029f565b604051808273ffffffffffffffffffffffffffffffffffffffff1673ffffffffffffffffffffffffffffffffffffffff16815260200191505060405180910390f35b34801561017457600080fd5b50610193600480360381019080803590602001909291905050506102d4565b6040518082815260200191505060405180910390f35b6101b1610349565b6000601080602002604051908101604052809291908260108015610220576020028201915b8160009054906101000a900473ffffffffffffffffffffffffffffffffffffffff1673ffffffffffffffffffffffffffffffffffffffff16815260200190600101908083116101d6575b5050505050905090565b600080821015801561023d5750600f8211155b151561024857600080fd5b3360008360108110151561025857fe5b0160006101000a81548173ffffffffffffffffffffffffffffffffffffffff021916908373ffffffffffffffffffffffffffffffffffffffff160217905550819050919050565b6000816010811015156102ae57fe5b016000915054906101000a900473ffffffffffffffffffffffffffffffffffffffff1681565b60008082101580156102e75750600f8211155b15156102f257600080fd5b6000808360108110151561030257fe5b0160006101000a81548173ffffffffffffffffffffffffffffffffffffffff021916908373ffffffffffffffffffffffffffffffffffffffff160217905550819050919050565b610200604051908101604052806010906020820280388339808201915050905050905600a165627a7a7230582040a13d5e64aca2eaabc86a32115dc4f442e1094196b68198c00e5227c53aa06b0029",
  "source": "pragma solidity ^0.4.24;\r\n\r\ncontract LeaseProperty {\r\n\r\n    address[16] public lessees;\r\n\r\n    // Lease a property\r\n    function lease(uint propertyId) public returns (uint) {\r\n        require(propertyId >= 0 && propertyId <= 15);\r\n        lessees[propertyId] = msg.sender;\r\n        return propertyId;\r\n    }\r\n\r\n    // Retrieving the lessees\r\n    function getLessees() public view returns (address[16]) {\r\n        return lessees;\r\n    }\r\n\r\n    function resetAsset(uint propertyId) public returns (uint) {\r\n        require(propertyId >= 0 && propertyId <= 15);\r\n        lessees[propertyId] = 0x0000000000000000000000000000000000000000;\r\n        return propertyId;\r\n    }\r\n}",
  "sourcePath": "C:/Users/LG/Documents/GitHub/dmdsite/HouseLeaseDApp/HouseLease/contracts/LeaseProperty.sol",
  "compiler": {
    "name": "solc",
    "version": "0.4.24+commit.e67f0147.Emscripten.clang"
  },
  "schemaVersion": "3.0.16",
  "updatedAt": "2019-09-23T13:16:02.959Z",
  "devdoc": {
    "methods": {}
  },
  "userdoc": {
    "methods": {}
  }
}