{
  "contractName": "LeaseProperty",
  "abi": [
    {
      "constant": true,
      "inputs": [
        {
          "name": "",
          "type": "uint256"
        }
      ],
      "name": "lessees",
      "outputs": [
        {
          "name": "",
          "type": "address"
        }
      ],
      "payable": false,
      "stateMutability": "view",
      "type": "function"
    },
    {
      "constant": false,
      "inputs": [
        {
          "name": "propertyId",
          "type": "uint256"
        }
      ],
      "name": "lease",
      "outputs": [
        {
          "name": "",
          "type": "uint256"
        }
      ],
      "payable": false,
      "stateMutability": "nonpayable",
      "type": "function"
    },
    {
      "constant": true,
      "inputs": [],
      "name": "getLessees",
      "outputs": [
        {
          "name": "",
          "type": "address[16]"
        }
      ],
      "payable": false,
      "stateMutability": "view",
      "type": "function"
    },
    {
      "constant": false,
      "inputs": [],
      "name": "resetAsset",
      "outputs": [
        {
          "name": "",
          "type": "address[16]"
        }
      ],
      "payable": false,
      "stateMutability": "nonpayable",
      "type": "function"
    }
  ],
  "bytecode": "0x608060405234801561001057600080fd5b50610423806100206000396000f300608060405260043610610062576000357c0100000000000000000000000000000000000000000000000000000000900463ffffffff168063014285f3146100675780632e352497146100ba5780633defea20146100fb5780636d702f8f14610168575b600080fd5b34801561007357600080fd5b5061007c6101bb565b6040518082601060200280838360005b838110156100a757808201518184015260208101905061008c565b5050505090500191505060405180910390f35b3480156100c657600080fd5b506100e56004803603810190808035906020019092919050505061023c565b6040518082815260200191505060405180910390f35b34801561010757600080fd5b50610126600480360381019080803590602001909291905050506102b1565b604051808273ffffffffffffffffffffffffffffffffffffffff1673ffffffffffffffffffffffffffffffffffffffff16815260200191505060405180910390f35b34801561017457600080fd5b5061017d6102e6565b6040518082601060200280838360005b838110156101a857808201518184015260208101905061018d565b5050505090500191505060405180910390f35b6101c36103d3565b6000601080602002604051908101604052809291908260108015610232576020028201915b8160009054906101000a900473ffffffffffffffffffffffffffffffffffffffff1673ffffffffffffffffffffffffffffffffffffffff16815260200190600101908083116101e8575b5050505050905090565b600080821015801561024f5750600f8211155b151561025a57600080fd5b3360008360108110151561026a57fe5b0160006101000a81548173ffffffffffffffffffffffffffffffffffffffff021916908373ffffffffffffffffffffffffffffffffffffffff160217905550819050919050565b6000816010811015156102c057fe5b016000915054906101000a900473ffffffffffffffffffffffffffffffffffffffff1681565b6102ee6103d3565b60008090505b6010811015610359576000808260108110151561030d57fe5b0160006101000a81548173ffffffffffffffffffffffffffffffffffffffff021916908373ffffffffffffffffffffffffffffffffffffffff16021790555080806001019150506102f4565b60006010806020026040519081016040528092919082601080156103c8576020028201915b8160009054906101000a900473ffffffffffffffffffffffffffffffffffffffff1673ffffffffffffffffffffffffffffffffffffffff168152602001906001019080831161037e575b505050505091505090565b610200604051908101604052806010906020820280388339808201915050905050905600a165627a7a72305820cef7643b5d86ef2d2b48179dcaa55e123e92974eb80940325ae58e0af48e1fa40029",
  "source": "pragma solidity ^0.4.24;\n\ncontract LeaseProperty {\n\n    address[16] public lessees;\n\n    // Lease a property\n    function lease(uint propertyId) public returns (uint) {\n        require(propertyId >= 0 && propertyId <= 15);\n        lessees[propertyId] = msg.sender;\n        return propertyId;\n    }\n\n    // Retrieving the lessees\n    function getLessees() public view returns (address[16]) {\n        return lessees;\n    }\n\n    function resetAsset() public returns (address[16]) {\n        // require(propertyId >= 0 && propertyId <= 15);\n        // lessees[propertyId] = 0x0000000000000000000000000000000000000000;\n        for(uint i=0; i<16; i++){\n            lessees[i]=0x0000000000000000000000000000000000000000;\n        }\n        return lessees;\n    }\n}",
  "sourcePath": "/Users/admin/Documents/GitHub/dmdsite/HouseLeaseDApp/HouseLease/contracts/LeaseProperty.sol",
  "compiler": {
    "name": "solc",
    "version": "0.4.24+commit.e67f0147.Emscripten.clang"
  },
  "schemaVersion": "3.0.16",
  "updatedAt": "2019-09-24T06:08:18.585Z",
  "devdoc": {
    "methods": {}
  },
  "userdoc": {
    "methods": {}
  }
}