{
  "contractName": "Store",
  "abi": [
    {
      "constant": false,
      "inputs": [],
      "name": "BuyCoke",
      "outputs": [],
      "payable": true,
      "stateMutability": "payable",
      "type": "function"
    },
    {
      "constant": true,
      "inputs": [],
      "name": "GetMyCokeNum",
      "outputs": [
        {
          "name": "",
          "type": "uint16"
        }
      ],
      "payable": false,
      "stateMutability": "view",
      "type": "function"
    }
  ],
  "bytecode": "0x60806040526000600160006101000a81548161ffff021916908361ffff16021790555034801561002e57600080fd5b506101748061003e6000396000f3fe608060405260043610610046576000357c010000000000000000000000000000000000000000000000000000000090048063af6d69c31461004b578063e943700314610055575b600080fd5b610053610088565b005b34801561006157600080fd5b5061006a610130565b604051808261ffff1661ffff16815260200191505060405180910390f35b6000803373ffffffffffffffffffffffffffffffffffffffff1673ffffffffffffffffffffffffffffffffffffffff168152602001908152602001600020600081819054906101000a900461ffff168092919060010191906101000a81548161ffff021916908361ffff160217905550506001600081819054906101000a900461ffff168092919060010191906101000a81548161ffff021916908361ffff16021790555050565b6000600160009054906101000a900461ffff1690509056fea165627a7a7230582016fbd9c2616ed09911ade0d6dcc3923a573852f2e3a7bace3c285f3ab82fbf720029",
  "source": "pragma solidity ^0.5.8;\r\n\r\ncontract Store{\r\n\r\n    mapping (address=>uint16) MyCokeNum;\r\n    uint16 mycoke = 0;\r\n\r\nfunction BuyCoke() payable external{\r\n    MyCokeNum[msg.sender]++;\r\n    mycoke ++;\r\n}\r\n\r\nfunction GetMyCokeNum() view external returns(uint16){\r\n    return mycoke;\r\n    //return MyCokeNum[msg.sender];\r\n}\r\n}\r\n",
  "sourcePath": "C:/Users/user/Desktop/free/contracts/Store.sol",
  "compiler": {
    "name": "solc",
    "version": "0.5.8+commit.23d335f2.Emscripten.clang"
  },
  "schemaVersion": "3.0.15",
  "updatedAt": "2019-09-20T00:37:46.606Z",
  "devdoc": {
    "methods": {}
  },
  "userdoc": {
    "methods": {}
  }
}