{
  "contractName": "LeaseProperty",
  "abi": [
    {
      "constant": true,
      "inputs": [
        {
          "name": "",
          "type": "uint256"
        }
      ],
      "name": "leasees",
      "outputs": [
        {
          "name": "",
          "type": "address"
        }
      ],
      "payable": false,
      "stateMutability": "view",
      "type": "function"
    },
    {
      "constant": false,
      "inputs": [
        {
          "name": "propertyId",
          "type": "uint256"
        }
      ],
      "name": "lease",
      "outputs": [
        {
          "name": "",
          "type": "uint256"
        }
      ],
      "payable": false,
      "stateMutability": "nonpayable",
      "type": "function"
    },
    {
      "constant": true,
      "inputs": [],
      "name": "getLessees",
      "outputs": [
        {
          "name": "",
          "type": "address[16]"
        }
      ],
      "payable": false,
      "stateMutability": "view",
      "type": "function"
    }
  ],
  "bytecode": "0x608060405234801561001057600080fd5b506102d8806100206000396000f300608060405260043610610057576000357c0100000000000000000000000000000000000000000000000000000000900463ffffffff168063014285f31461005c5780632e352497146100af578063c4580b04146100f0575b600080fd5b34801561006857600080fd5b5061007161015d565b6040518082601060200280838360005b8381101561009c578082015181840152602081019050610081565b5050505090500191505060405180910390f35b3480156100bb57600080fd5b506100da600480360381019080803590602001909291905050506101de565b6040518082815260200191505060405180910390f35b3480156100fc57600080fd5b5061011b60048036038101908080359060200190929190505050610253565b604051808273ffffffffffffffffffffffffffffffffffffffff1673ffffffffffffffffffffffffffffffffffffffff16815260200191505060405180910390f35b610165610288565b60006010806020026040519081016040528092919082601080156101d4576020028201915b8160009054906101000a900473ffffffffffffffffffffffffffffffffffffffff1673ffffffffffffffffffffffffffffffffffffffff168152602001906001019080831161018a575b5050505050905090565b60008082101580156101f15750600f8211155b15156101fc57600080fd5b3360008360108110151561020c57fe5b0160006101000a81548173ffffffffffffffffffffffffffffffffffffffff021916908373ffffffffffffffffffffffffffffffffffffffff160217905550819050919050565b60008160108110151561026257fe5b016000915054906101000a900473ffffffffffffffffffffffffffffffffffffffff1681565b610200604051908101604052806010906020820280388339808201915050905050905600a165627a7a72305820b4ac213f3f865b86ab9ba3186310100f156434f361aa44a1c2ba3f9780b9fc820029",
  "source": "pragma solidity ^0.4.24;\r\n\r\ncontract LeaseProperty {\r\n    address[16] public leasees;  //16개의 address 배열\r\n\r\n    function lease(uint propertyId) public returns(uint) {\r\n        require(propertyId >= 0 && propertyId <= 15);\r\n        leasees[propertyId] = msg.sender;\r\n        return propertyId;\r\n     }   // propertyId를 호출한 address를 배열에 set.\r\n\r\n    function getLessees() public view returns (address[16]) {\r\n        return leasees;\r\n    }    // lessees 배열 set.\r\n}\r\n\r\n    ",
  "sourcePath": "C:/Users/class3/LeaseHouse/contracts/LeaseProperty.sol",
  "compiler": {
    "name": "solc",
    "version": "0.4.24+commit.e67f0147.Emscripten.clang"
  },
  "schemaVersion": "3.0.15",
  "updatedAt": "2019-09-16T06:04:37.649Z",
  "devdoc": {
    "methods": {}
  },
  "userdoc": {
    "methods": {}
  }
}